{
  "_format": "hh-sol-artifact-1",
  "contractName": "NotesContract",
  "sourceName": "contracts/NotesContract.sol",
  "abi": [
    {
      "anonymous": false,
      "inputs": [
        {
          "indexed": false,
          "internalType": "uint256",
          "name": "id",
          "type": "uint256"
        },
        {
          "indexed": false,
          "internalType": "string",
          "name": "content",
          "type": "string"
        },
        {
          "indexed": false,
          "internalType": "address",
          "name": "owner",
          "type": "address"
        }
      ],
      "name": "NoteCreated",
      "type": "event"
    },
    {
      "inputs": [
        {
          "internalType": "string",
          "name": "_content",
          "type": "string"
        }
      ],
      "name": "createNote",
      "outputs": [],
      "stateMutability": "nonpayable",
      "type": "function"
    },
    {
      "inputs": [
        {
          "internalType": "uint256",
          "name": "_id",
          "type": "uint256"
        }
      ],
      "name": "getNoteOwner",
      "outputs": [
        {
          "internalType": "address",
          "name": "",
          "type": "address"
        }
      ],
      "stateMutability": "view",
      "type": "function"
    },
    {
      "inputs": [],
      "name": "getNotes",
      "outputs": [
        {
          "components": [
            {
              "internalType": "uint256",
              "name": "id",
              "type": "uint256"
            },
            {
              "internalType": "string",
              "name": "content",
              "type": "string"
            },
            {
              "internalType": "address",
              "name": "owner",
              "type": "address"
            }
          ],
          "internalType": "struct NotesContract.Note[]",
          "name": "",
          "type": "tuple[]"
        }
      ],
      "stateMutability": "view",
      "type": "function"
    },
    {
      "inputs": [],
      "name": "nextNoteId",
      "outputs": [
        {
          "internalType": "uint256",
          "name": "",
          "type": "uint256"
        }
      ],
      "stateMutability": "view",
      "type": "function"
    },
    {
      "inputs": [
        {
          "internalType": "uint256",
          "name": "",
          "type": "uint256"
        }
      ],
      "name": "noteToOwner",
      "outputs": [
        {
          "internalType": "address",
          "name": "",
          "type": "address"
        }
      ],
      "stateMutability": "view",
      "type": "function"
    },
    {
      "inputs": [
        {
          "internalType": "uint256",
          "name": "",
          "type": "uint256"
        }
      ],
      "name": "notes",
      "outputs": [
        {
          "internalType": "uint256",
          "name": "id",
          "type": "uint256"
        },
        {
          "internalType": "string",
          "name": "content",
          "type": "string"
        },
        {
          "internalType": "address",
          "name": "owner",
          "type": "address"
        }
      ],
      "stateMutability": "view",
      "type": "function"
    }
  ],
  "bytecode": "0x608060405234801561001057600080fd5b50610ddd806100206000396000f3fe608060405234801561001057600080fd5b50600436106100625760003560e01c806361c3a7e6146100675780637a2043a314610099578063b4af200d146100b7578063d2b5f489146100d5578063d616b98914610105578063e1250ab414610135575b600080fd5b610081600480360381019061007c91906105b7565b610151565b604051610090939291906106c4565b60405180910390f35b6100a1610233565b6040516100ae9190610702565b60405180910390f35b6100bf610239565b6040516100cc9190610897565b60405180910390f35b6100ef60048036038101906100ea91906105b7565b61038a565b6040516100fc91906108b9565b60405180910390f35b61011f600480360381019061011a91906105b7565b6103bd565b60405161012c91906108b9565b60405180910390f35b61014f600480360381019061014a9190610a09565b6103fa565b005b6000818154811061016157600080fd5b906000526020600020906003020160009150905080600001549080600101805461018a90610a81565b80601f01602080910402602001604051908101604052809291908181526020018280546101b690610a81565b80156102035780601f106101d857610100808354040283529160200191610203565b820191906000526020600020905b8154815290600101906020018083116101e657829003601f168201915b5050505050908060020160009054906101000a900473ffffffffffffffffffffffffffffffffffffffff16905083565b60025481565b60606000805480602002602001604051908101604052809291908181526020016000905b8282101561038157838290600052602060002090600302016040518060600160405290816000820154815260200160018201805461029a90610a81565b80601f01602080910402602001604051908101604052809291908181526020018280546102c690610a81565b80156103135780601f106102e857610100808354040283529160200191610313565b820191906000526020600020905b8154815290600101906020018083116102f657829003601f168201915b505050505081526020016002820160009054906101000a900473ffffffffffffffffffffffffffffffffffffffff1673ffffffffffffffffffffffffffffffffffffffff1673ffffffffffffffffffffffffffffffffffffffff16815250508152602001906001019061025d565b50505050905090565b60016020528060005260406000206000915054906101000a900473ffffffffffffffffffffffffffffffffffffffff1681565b60006001600083815260200190815260200160002060009054906101000a900473ffffffffffffffffffffffffffffffffffffffff169050919050565b6000604051806060016040528060025481526020018381526020013373ffffffffffffffffffffffffffffffffffffffff1681525090806001815401808255809150506001900390600052602060002090600302016000909190919091506000820151816000015560208201518160010190816104779190610c5e565b5060408201518160020160006101000a81548173ffffffffffffffffffffffffffffffffffffffff021916908373ffffffffffffffffffffffffffffffffffffffff16021790555050503360016000600254815260200190815260200160002060006101000a81548173ffffffffffffffffffffffffffffffffffffffff021916908373ffffffffffffffffffffffffffffffffffffffff1602179055507f12f69066f9b95f56404d1a1c21d5463f6b6c36f7eccac9d1ebf74ae435178cc2600254823360405161054a939291906106c4565b60405180910390a16002600081548092919061056590610d5f565b919050555050565b6000604051905090565b600080fd5b600080fd5b6000819050919050565b61059481610581565b811461059f57600080fd5b50565b6000813590506105b18161058b565b92915050565b6000602082840312156105cd576105cc610577565b5b60006105db848285016105a2565b91505092915050565b6105ed81610581565b82525050565b600081519050919050565b600082825260208201905092915050565b60005b8381101561062d578082015181840152602081019050610612565b60008484015250505050565b6000601f19601f8301169050919050565b6000610655826105f3565b61065f81856105fe565b935061066f81856020860161060f565b61067881610639565b840191505092915050565b600073ffffffffffffffffffffffffffffffffffffffff82169050919050565b60006106ae82610683565b9050919050565b6106be816106a3565b82525050565b60006060820190506106d960008301866105e4565b81810360208301526106eb818561064a565b90506106fa60408301846106b5565b949350505050565b600060208201905061071760008301846105e4565b92915050565b600081519050919050565b600082825260208201905092915050565b6000819050602082019050919050565b61075281610581565b82525050565b600082825260208201905092915050565b6000610774826105f3565b61077e8185610758565b935061078e81856020860161060f565b61079781610639565b840191505092915050565b6107ab816106a3565b82525050565b60006060830160008301516107c96000860182610749565b50602083015184820360208601526107e18282610769565b91505060408301516107f660408601826107a2565b508091505092915050565b600061080d83836107b1565b905092915050565b6000602082019050919050565b600061082d8261071d565b6108378185610728565b93508360208202850161084985610739565b8060005b8581101561088557848403895281516108668582610801565b945061087183610815565b925060208a0199505060018101905061084d565b50829750879550505050505092915050565b600060208201905081810360008301526108b18184610822565b905092915050565b60006020820190506108ce60008301846106b5565b92915050565b600080fd5b600080fd5b7f4e487b7100000000000000000000000000000000000000000000000000000000600052604160045260246000fd5b61091682610639565b810181811067ffffffffffffffff82111715610935576109346108de565b5b80604052505050565b600061094861056d565b9050610954828261090d565b919050565b600067ffffffffffffffff821115610974576109736108de565b5b61097d82610639565b9050602081019050919050565b82818337600083830152505050565b60006109ac6109a784610959565b61093e565b9050828152602081018484840111156109c8576109c76108d9565b5b6109d384828561098a565b509392505050565b600082601f8301126109f0576109ef6108d4565b5b8135610a00848260208601610999565b91505092915050565b600060208284031215610a1f57610a1e610577565b5b600082013567ffffffffffffffff811115610a3d57610a3c61057c565b5b610a49848285016109db565b91505092915050565b7f4e487b7100000000000000000000000000000000000000000000000000000000600052602260045260246000fd5b60006002820490506001821680610a9957607f821691505b602082108103610aac57610aab610a52565b5b50919050565b60008190508160005260206000209050919050565b60006020601f8301049050919050565b600082821b905092915050565b600060088302610b147fffffffffffffffffffffffffffffffffffffffffffffffffffffffffffffffff82610ad7565b610b1e8683610ad7565b95508019841693508086168417925050509392505050565b6000819050919050565b6000610b5b610b56610b5184610581565b610b36565b610581565b9050919050565b6000819050919050565b610b7583610b40565b610b89610b8182610b62565b848454610ae4565b825550505050565b600090565b610b9e610b91565b610ba9818484610b6c565b505050565b5b81811015610bcd57610bc2600082610b96565b600181019050610baf565b5050565b601f821115610c1257610be381610ab2565b610bec84610ac7565b81016020851015610bfb578190505b610c0f610c0785610ac7565b830182610bae565b50505b505050565b600082821c905092915050565b6000610c3560001984600802610c17565b1980831691505092915050565b6000610c4e8383610c24565b9150826002028217905092915050565b610c67826105f3565b67ffffffffffffffff811115610c8057610c7f6108de565b5b610c8a8254610a81565b610c95828285610bd1565b600060209050601f831160018114610cc85760008415610cb6578287015190505b610cc08582610c42565b865550610d28565b601f198416610cd686610ab2565b60005b82811015610cfe57848901518255600182019150602085019450602081019050610cd9565b86831015610d1b5784890151610d17601f891682610c24565b8355505b6001600288020188555050505b505050505050565b7f4e487b7100000000000000000000000000000000000000000000000000000000600052601160045260246000fd5b6000610d6a82610581565b91507fffffffffffffffffffffffffffffffffffffffffffffffffffffffffffffffff8203610d9c57610d9b610d30565b5b60018201905091905056fea264697066735822122017e7d8c5f30ce49d823732a5da5863c4600ba5e47b0b003ca1c79bddd7cdfbf864736f6c63430008130033",
  "linkReferences": {},
  "deployedLinkReferences": {}
}